:020000040800F2
:10000000000400204111000881120008811200083C
:100010008112000881120008811200088112000874
:10002000811200088112000881120008B112000834
:100030008112000881120008811200089113000843
:100040008112000841310008811200088112000865
:100050008112000881120008212F0008512F00088A
:10006000812F0008B12F0008E12F00082128000887
:100070005128000881280008B1280008E12800085C
:100080001129000841290008811200088112000886
:100090008112000881120008811200081130000846
:1000A00081120008C13C000881120008811200087A
:1000B000E13C000881120008C1630008B135000866
:1000C000E136000881120008811200088112000840
:1000D00081120008C13F0008E13F0008014000080C
:1000E000A130000871310008A13100088112000818
:1000F0008112000881120008811200088112000894
:100100008112000881120008013D000881120008D8
:100110008112000881120008811200088112000873
:1001200071290008A1290008D1290008012A000826
:1001300010B502F035F9332401F0C2F905F010F8DA
:1001400004F076FF05E0013C6420A4B201F058FC05
:100150001CB106F005FA0028F5D0002404F088FB55
:100160003CB1237F0E2B0FD0322001F049FC002C34
:10017000F7D149F2B060C0F600004FF42C71402274
:1001800004F07EFB0446EFE7204601F0B1FC0024BA
:10019000EAE700BFAFF30080AFF30080AFF3008069
:1001A00081F0004102E000BF83F0004330B54FEA28
:1001B00041044FEA430594EA050F08BF90EA020F95
:1001C0001FBF54EA000C55EA020C7FEA645C7FEA28
:1001D000655C00F0E2804FEA5454D4EB5555B8BF4B
:1001E0006D420CDD2C4480EA020281EA030382EABC
:1001F000000083EA010180EA020281EA0303362D4E
:1002000088BF30BD11F0004F4FEA01314FF4801C20
:100210004CEA113102D0404261EB410113F0004F32
:100220004FEA03334CEA133302D0524263EB4303E9
:1002300094EA050F00F0A780A4F10104D5F1200E87
:100240000DDB02FA0EFC22FA05F2801841F10001E2
:1002500003FA0EF2801843FA05F359410EE0A5F1B6
:1002600020050EF1200E012A03FA0EFC28BF4CF0E7
:10027000020C43FA05F3C01851EBE37101F000459D
:1002800007D54FF0000EDCF1000C7EEB00006EEBAA
:100290000101B1F5801F1BD3B1F5001F0CD3490834
:1002A0005FEA30004FEA3C0C04F101044FEA44528B
:1002B00012F5800F80F09A80BCF1004F08BF5FEA12
:1002C000500C50F1000041EB045141EA050130BDF2
:1002D0005FEA4C0C404141EB010111F4801FA4F195
:1002E0000104E9D191F0000F04BF01460020B1FAEA
:1002F00081F308BF2033A3F10B03B3F120020CDA22
:100300000C3208DD02F1140CC2F10C0201FA0CF0FF
:1003100021FA02F10CE002F11402D8BFC2F1200C64
:1003200001FA02F120FA0CFCDCBF41EA0C0190401A
:10033000E41AA2BF01EB0451294330BD6FEA040463
:100340001F3C1CDA0C340EDC04F11404C4F120024E
:1003500020FA04F001FA02F340EA030021FA04F360
:1003600045EA030130BDC4F10C04C4F1200220FAB7
:1003700002F001FA04F340EA0300294630BD21FAF5
:1003800004F0294630BD94F0000F83F4801306BFBB
:1003900081F480110134013D4EE77FEA645C18BFAF
:1003A0007FEA655C29D094EA050F08BF90EA020F46
:1003B00005D054EA000C04BF1946104630BD91EA3E
:1003C000030F1EBF0021002030BD5FEA545C05D141
:1003D0004000494128BF41F0004130BD14F5800480
:1003E0003CBF01F5801130BD01F0004545F0FE41F4
:1003F00041F470014FF0000030BD7FEA645C1ABF29
:10040000194610467FEA655C1CBF0B46024650EA5F
:10041000013406BF52EA033591EA030F41F400218B
:1004200030BD00BF90F0000F04BF0021704730B511
:100430004FF4806404F132044FF000054FF00001E6
:1004400050E700BF90F0000F04BF0021704730B5A7
:100450004FF4806404F1320410F0004548BF40427C
:100460004FF000013EE700BF42004FEAE2014FEAD1
:1004700031014FEA02701FBF12F07F4393F07F4FAC
:1004800081F06051704792F0000F14BF93F07F4FDE
:10049000704730B54FF4607401F0004521F0004121
:1004A00020E700BF50EA010208BF704730B54FF0A7
:1004B00000050AE050EA010208BF704730B511F0AC
:1004C000004502D5404261EB41014FF4806404F1E4
:1004D00032045FEA915C3FF4DCAE4FF003025FEA66
:1004E000DC0C18BF03325FEADC0C18BF033202EBEE
:1004F000DC02C2F1200300FA03FC20FA02F001FA48
:1005000003FE40EA0E0021FA02F11444C1E600BFE6
:1005100070B54FF0FF0C4CF4E06C1CEA11541DBF99
:100520001CEA135594EA0C0F95EA0C0F00F0DEF864
:100530002C4481EA030621EA4C5123EA4C5350EA49
:10054000013518BF52EA033541F4801143F480139A
:1005500038D0A0FB02CE4FF00005E1FB02E506F02B
:100560000042E0FB03E54FF00006E1FB03569CF080
:10057000000F18BF4EF0010EA4F1FF04B6F5007F86
:1005800064F5407404D25FEA4E0E6D4146EB0606F8
:1005900042EAC62141EA55514FEAC52040EA5E5081
:1005A0004FEACE2EB4F1FD0C88BFBCF5E06F1ED82B
:1005B000BEF1004F08BF5FEA500E50F1000041EB62
:1005C000045170BD06F0004646EA010140EA02000F
:1005D00081EA0301B4EB5C04C2BFD4EB0C0541EA31
:1005E000045170BD41F480114FF0000E013C00F346
:1005F000AB8014F1360FDEBF002001F0004170BD6A
:10060000C4F10004203C35DA0C341BDC04F1140482
:10061000C4F1200500FA05F320FA04F001FA05F20E
:1006200040EA020001F0004221F0004110EBD370DB
:1006300021FA04F642EB06015EEA430E08BF20EA07
:10064000D37070BDC4F10C04C4F1200500FA04F3AA
:1006500020FA05F001FA04F240EA020001F000413C
:1006600010EBD37041F100015EEA430E08BF20EAAF
:10067000D37070BDC4F1200500FA05F24EEA020EF7
:1006800020FA04F301FA05F243EA020321FA04F026
:1006900001F0004121FA04F220EA020000EBD370DD
:1006A0005EEA430E08BF20EAD37070BD94F0000FDD
:1006B0000FD101F00046400041EB010111F4801F11
:1006C00008BF013CF7D041EA060195F0000F18BFC2
:1006D000704703F00046520043EB030313F4801FFE
:1006E00008BF013DF7D043EA0603704794EA0C0FB8
:1006F0000CEA135518BF95EA0C0F0CD050EA4106CE
:1007000018BF52EA4306D1D181EA030101F000414A
:100710004FF0000070BD50EA410606BF1046194672
:1007200052EA430619D094EA0C0F02D150EA01367E
:1007300013D195EA0C0F05D152EA03361CBF1046BF
:1007400019460AD181EA030101F0004141F0FE415E
:1007500041F470014FF0000070BD41F0FE4141F4E2
:10076000780170BD70B54FF0FF0C4CF4E06C1CEAE2
:1007700011541DBF1CEA135594EA0C0F95EA0C0F97
:1007800000F0A7F8A4EB050481EA030E52EA033552
:100790004FEA013100F088804FEA03334FF0805573
:1007A00045EA131343EA12634FEA022245EA1115A0
:1007B00045EA10654FEA00260EF000419D4208BF51
:1007C000964244F1FD0404F5407402D25B084FEAFE
:1007D0003202B61A65EB03055B084FEA32024FF4AA
:1007E00080104FF4002CB6EB020E75EB030E22BF07
:1007F000B61A754640EA0C005B084FEA3202B6EBC7
:10080000020E75EB030E22BFB61A754640EA5C0075
:100810005B084FEA3202B6EB020E75EB030E22BF05
:10082000B61A754640EA9C005B084FEA3202B6EB06
:10083000020E75EB030E22BFB61A754640EADC00C5
:1008400055EA060E18D04FEA051545EA16754FEA27
:1008500006164FEAC30343EA52734FEAC2025FEA45
:100860001C1CC0D111F4801F0BD141EA00014FF0D4
:1008700000004FF0004CB6E711F4801F04BF0143A5
:100880000020B4F1FD0C88BFBCF5E06F3FF6AFAEC1
:10089000B5EB030C04BFB6EB020C5FEA500C50F151
:1008A000000041EB045170BD0EF0004E4EEA1131D4
:1008B00014EB5C04C2BFD4EB0C0541EA045170BDDB
:1008C00041F480114FF0000E013C90E645EA060E1F
:1008D0008DE60CEA135594EA0C0F08BF95EA0C0F4D
:1008E0003FF43BAF94EA0C0F0AD150EA01347FF495
:1008F00034AF95EA0C0F7FF425AF104619462CE76C
:1009000095EA0C0F06D152EA03353FF4FDAE1046CE
:10091000194622E750EA410618BF52EA43067FF41F
:10092000C5AE50EA41047FF40DAF52EA43057FF4AF
:10093000EBAE12E700000000000000000000000025
:100940004FF0FF3C06E000BF4FF0010C02E000BF9B
:100950004FF0010C4DF804CD4FEA410C7FEA6C5C7E
:100960004FEA430C18BF7FEA6C5C1BD001B050EA21
:10097000410C0CBF52EA430C91EA030F02BF90EA0C
:10098000020F0020704710F1000F91EA030F58BFCB
:10099000994208BF90422CBFD8176FEAE37040F02D
:1009A000010070474FEA410C7FEA6C5C02D150EACB
:1009B000013C07D14FEA430C7FEA6C5CD6D152EA86
:1009C000033CD3D05DF8040B704700BF844610464B
:1009D00062468C461946634600E000BF01B5FFF74A
:1009E000B7FF002848BF10F1000F01BD4DF808ED1A
:1009F000FFF7F4FF0CBF012000205DF808FB00BFEB
:100A00004DF808EDFFF7EAFF34BF012000205DF844
:100A100008FB00BF4DF808EDFFF7E0FF94BF012091
:100A200000205DF808FB00BF4DF808EDFFF7CEFF92
:100A300094BF012000205DF808FB00BF4DF808EDD1
:100A4000FFF7C4FF34BF012000205DF808FB00BFA2
:100A50004FEA410212F5001215D211D56FF47873E6
:100A6000B3EB625212D94FEAC12343F0004343EA89
:100A7000505311F0004F23FA02F018BF4042704764
:100A80004FF00000704750EA013005D111F00040EE
:100A900008BF6FF0004070474FF00000704700BF84
:100AA0004A0011D212F5001211D20DD56FF47873ED
:100AB000B3EB62520ED44FEAC12343F0004343EA42
:100AC000505323FA02F070474FF00000704750EA8D
:100AD000013002D14FF0FF3070474FF000007047F7
:100AE00080F0004002E000BF81F0004142001FBFE3
:100AF0005FEA410392EA030F7FEA226C7FEA236CEC
:100B00006AD04FEA1262D2EB1363C1BFD2184140E0
:100B100048404140B8BF5B42192B88BF704710F076
:100B2000004F40F4000020F07F4018BF404211F019
:100B3000004F41F4000121F07F4118BF494292EA81
:100B4000030F3FD0A2F1010241FA03FC10EB0C00AD
:100B5000C3F1200301FA03F100F0004302D549423A
:100B600060EB4000B0F5000F13D3B0F1807F06D3E7
:100B700040084FEA310102F10102FE2A51D2B1F1DF
:100B8000004F40EBC25008BF20F0010040EA0300D4
:100B90007047490040EB000010F4000FA2F1010281
:100BA000EDD1B0FA80FCACF1080CB2EB0C0200FA0B
:100BB0000CF0AABF00EBC25052421843BCBFD04059
:100BC0001843704792F0000F81F4000106BF80F4D3
:100BD00000000132013BB5E74FEA41037FEA226C96
:100BE00018BF7FEA236C21D092EA030F04D092F061
:100BF000000F08BF0846704790EA010F1CBF002095
:100C0000704712F07F4F04D1400028BF40F00040F1
:100C1000704712F100723CBF00F50000704700F011
:100C2000004343F0FE4040F4000070477FEA226238
:100C300016BF08467FEA23630146420206BF5FEA09
:100C4000412390EA010F40F4800070474FF0000309
:100C500004E000BF10F0004348BF40425FEA000CD0
:100C600008BF704743F0964301464FF000001CE078
:100C700050EA010208BF70474FF000030AE000BFCE
:100C800050EA010208BF704711F0004302D540420C
:100C900061EB41015FEA010C02BF8446014600207E
:100CA00043F0B64308BFA3F18053A3F50003BCFA99
:100CB0008CF2083AA3EBC25310DB01FA02FC634446
:100CC00000FA02FCC2F12002BCF1004F20FA02F24D
:100CD00043EB020008BF20F00100704702F1200240
:100CE00001FA02FCC2F1200250EA4C0021FA02F2A1
:100CF00043EB020008BF20EADC70704700000000F0
:100D00004FF0FF0C1CEAD0521EBF1CEAD15392EAEE
:100D10000C0F93EA0C0F6FD01A4480EA010C4002CA
:100D200018BF5FEA41211ED04FF0006343EA501024
:100D300043EA5111A0FB01310CF00040B1F5000F66
:100D40003EBF490041EAD3715B0040EA010062F115
:100D50007F02FD2A1DD8B3F1004F40EBC25008BFFF
:100D600020F00100704790F0000F0CF0004C08BF1D
:100D700049024CEA502040EA51207F3AC2BFD2F1EA
:100D8000FF0340EAC250704740F400004FF00003F8
:100D9000013A5DDC12F1190FDCBF00F00040704732
:100DA000C2F10002410021FA02F1C2F1200200FA70
:100DB00002FC5FEA310040F1000053EA4C0308BF37
:100DC00020EADC70704792F0000F00F0004C02BF88
:100DD000400010F4000F013AF9D040EA0C0093F003
:100DE000000F01F0004C02BF490011F4000F013B5D
:100DF000F9D041EA0C018FE70CEAD15392EA0C0FCB
:100E000018BF93EA0C0F0AD030F0004C18BF31F035
:100E1000004CD8D180EA010000F00040704790F00B
:100E2000000F17BF90F0004F084691F0000F91F0AF
:100E3000004F14D092EA0C0F01D142020FD193EA75
:100E40000C0F03D14B0218BF084608D180EA0100FD
:100E500000F0004040F0FE4040F40000704740F0D9
:100E6000FE4040F4400070474FF0FF0C1CEAD052A7
:100E70001EBF1CEAD15392EA0C0F93EA0C0F69D003
:100E8000A2EB030280EA010C49024FEA402037D06E
:100E90004FF0805343EA111143EA10130CF0004065
:100EA0008B4238BF5B0042F17D024FF4000C8B4255
:100EB00024BF5B1A40EA0C00B3EB510F24BFA3EB35
:100EC000510340EA5C00B3EB910F24BFA3EB910305
:100ED00040EA9C00B3EBD10F24BFA3EBD10340EA5F
:100EE000DC001B0118BF5FEA1C1CE0D1FD2A3FF6A5
:100EF00050AF8B4240EBC25008BF20F0010070475A
:100F00000CF0004C4CEA50207F32C2BFD2F1FF03FC
:100F100040EAC250704740F400004FF00003013A2D
:100F200037E792F0000F00F0004C02BF400010F4D1
:100F3000000F013AF9D040EA0C0093F0000F01F0E5
:100F4000004C02BF490011F4000F013BF9D041EA07
:100F50000C0195E70CEAD15392EA0C0F08D142023A
:100F60007FF47DAF93EA0C0F7FF470AF084676E70D
:100F700093EA0C0F04D14B023FF44CAF08466EE7E6
:100F800030F0004C18BF31F0004CCAD130F00042B4
:100F90007FF45CAF31F000437FF43CAF5FE700BF0C
:100FA0004FF0FF3C06E000BF4FF0010C02E000BF35
:100FB0004FF0010C4DF804CD4FEA40024FEA4103D7
:100FC0007FEA226C18BF7FEA236C11D001B052EA8D
:100FD000530C18BF90EA010F58BFB2EB030088BF53
:100FE000C81738BF6FEAE17018BF40F001007047C2
:100FF0007FEA226C02D15FEA402C05D17FEA236CA4
:10100000E4D15FEA412CE1D05DF8040B704700BFEA
:10101000844608466146FFE70FB5FFF7C9FF002881
:1010200048BF10F1000F0FBD4DF808EDFFF7F4FFBA
:101030000CBF012000205DF808FB00BF4DF808ED53
:10104000FFF7EAFF34BF012000205DF808FB00BF76
:101050004DF808EDFFF7E0FF94BF012000205DF898
:1010600008FB00BF4DF808EDFFF7D2FF94BF012049
:1010700000205DF808FB00BF4DF808EDFFF7C8FF42
:1010800034BF012000205DF808FB00BF0000000015
:101090004FEA4002B2F1FE4F0FD34FF09E03B3EB85
:1010A00012620DD94FEA002343F0004310F0004FC5
:1010B00023FA02F018BF404270474FF0000070471B
:1010C00012F1610F01D1420205D110F0004008BFBA
:1010D0006FF0004070474FF00000704700000000C4
:1010E00042000ED2B2F1FE4F0BD34FF09E03B3EB92
:1010F000126209D44FEA002343F0004323FA02F0BE
:1011000070474FF00000704712F1610F01D14202A9
:1011100002D14FF0FF3070474FF00000704700BF22
:10112000704700BFAFF30080AFF30080AFF30080E3
:10113000FEE700BFAFF30080AFF30080AFF30080A5
:1011400072B640F60000C2F2000080F30988022364
:1011500083F31488BFF36F8F40F2000340F2004224
:10116000C2F20003C2F2000293420BD2D9431144EF
:1011700021F0030119444FF05532043B43F8042F8A
:101180008B42FBD140F20043C2F2000383420CD2F7
:1011900037491A1D891A21F0030119444FF05532BD
:1011A000043B43F8042F8B42FBD102F0E9FF40F6E9
:1011B000000140F66C73C2F20001C2F200039942D2
:1011C0000ED2CC431C4424F0030449F2F8700434DA
:1011D000C0F600000023C258CA500433A342FAD11B
:1011E00040F6707342F6D432C2F20003C2F200023B
:1011F00093420AD2D943114421F003011944002239
:10120000043B43F8042F8B42FBD1FFF789FF40F2E8
:10121000301540F23013C0F60005C0F600039D42C1
:101220000BD2EE431E44B6080136043D00240134BF
:1012300055F8043F9847B442F9D1FEF779FF40F2E0
:10124000301540F23013C0F60005C0F600039D4291
:101250000BD2EE431E44B6080136043D002401348F
:1012600055F8043F9847B442F9D1FFF761FF00BF3A
:1012700003080020AFF30080AFF30080AFF30080DD
:10128000FEE700BFAFF30080AFF30080AFF3008054
:1012900072B6FEE7AFF30080AFF30080AFF30080DB
:1012A00000F0E6FA00DF00BFAFF30080AFF300808C
:1012B000EFF30983203383F30988002383F3118834
:1012C000704700BFAFF30080AFF30080AFF3008042
:1012D00008B54FF440724FF46D43CEF20003C0F2F4
:1012E000FA52002199600720DA60102100F0C0F85E
:1012F0000A20202100F0BCF8BDE808400B20802126
:1013000000F0B6B8AFF30080AFF30080AFF3008019
:10131000202383F311884FF46D43CEF200035B6802
:1013200013F400631FD0EFF30982A2F1200383F3CB
:10133000098841F28803C2F200034FF08070996976
:1013400042F8040CC87F88B118688B68816899429C
:1013500094BF0023012393B141F2A123C0F60003FF
:1013600042F8083C704783F31188704718688B680F
:101370008168994234BF00230123002BECD141F254
:10138000A423C0F6000342F8083C7047AFF3008086
:1013900008B5202383F3118800F0CAF8002383F3F3
:1013A0001188BDE80840FFF7B3BF00BFAFF300806E
:1013B0002DE9F04FC1F80CD0D0F80CD0BDE8F08F7B
:1013C000002383F311882846A04700F069FB70478B
:1013D00000F0030330B4DB00FF259D40994001225B
:1013E00000F01F039A4020F0030404F1604404F568
:1013F0006144D4F800334009800023EA050300F17A
:10140000604000F561400B43C4F80033C0F8802110
:1014100030BC0260704700BFAFF30080AFF30080C4
:1014200010B400F01F0301249C4000F00301FF23CF
:10143000C90003FA01F142094FF4614320F00300AF
:101440002032CEF2000300F1604043F8224000F564
:101450006140D0F800235DF8044B22EA0103C0F894
:1014600000337047AFF30080AFF30080AFF300802C
:1014700000F00303DB00FF229A40994020F00300B4
:1014800000F1604000F56D40836923EA02030B43DD
:1014900083617047AFF30080AFF30080AFF300804B
:1014A00041F28803C2F200039A6948F6C033C0F6DD
:1014B00000039361FEE700BFAFF30080AFF300804D
:1014C00010B582B0FFF704FF00F0EAF800F068F80A
:1014D00000F03EFE00F084FE40F670704021C2F243
:1014E000000000F0D5F941F28803C2F200030122A6
:1014F00098610277002383F3118862B641F2880372
:10150000C2F200039C6948F6D032C0F60002002106
:1015100040F6B87041F2A143A261C0F60003009109
:101520000122C021C2F2000000F022FA02B010BD78
:1015300070B541F28803C2F200039B69DA7F0AB1F9
:10154000013ADA771A6A41F278010132C2F20001F7
:101550001A62CB680A6801338A42CB6019D0966858
:10156000013E9660AEB90D461068D4680860D6603A
:101570000023416083F311881069A047202383F37F
:1015800011882A6841F278019368C2F20001002BA9
:10159000EAD070BDAFF30080AFF30080AFF30080FE
:1015A00041F27803C2F200034FF0FF3100225B608A
:1015B0001B609960DA607047AFF30080AFF3008082
:1015C00070B441F27806C2F200063468A56803617F
:1015D000A942C26004D92468491BA5688D42FAD388
:1015E0006368B442046043606060186081601EBF3D
:1015F000A368C1EB0301A16070BC7047AFF300802A
:10160000036841F27802C2F2000293421FBF996858
:10161000826852189A6042680021136003685A6019
:10162000C1607047AFF30080AFF30080AFF300807C
:1016300010B4202383F31188037F0D2B11D8DFE82A
:1016400003F029101007100B101010101010100BC1
:10165000436A9A6801329A6090E80C001A60026846
:1016600053604FF0FF34002341F2880281684462E6
:101670000377C2F20002126893688B42FBD2516872
:101680000023026041605060086083F311885DF8B8
:10169000044B7047002383F311885DF8044B7047B7
:1016A00041F28803C2F2000300225B601B605B61B1
:1016B0001B619A60704700BFAFF30080AFF30080FA
:1016C000002241F28803816810B4C2F2000304468C
:1016D00002771B689A688A42FBD25A6820462360C8
:1016E00062605C6014605DF8044B7047AFF300808B
:1016F00041F28803C2F2000370B41A689969146851
:10170000142601250877CE77636015771C60104694
:1017100070BC9A61FFF74CBEAFF30080AFF300805E
:1017200030B54B1C87B0054617D041F28804C2F291
:10173000000441F23162A36901A8C0F60002FFF77C
:101740003FFF2846FFF7D4FF049B13B101A8FFF722
:1017500057FFA369586A07B030BDFFF7C9FF41F2D0
:101760008804C2F20004A369586A07B030BD00BF04
:10177000F0B441F28807C2F20007D7F818C08568B4
:10178000DCF808400646A54241620DD800223B46DF
:1017900002771B689A689542FBD95A683360726079
:1017A0005E601660F0BC704700238CF81C303B462E
:1017B0001B689A689442FBD95A680124CCF800301F
:1017C000CCF80420C3F804C0C2F800C03477304617
:1017D000BE616146F0BCFFF7EBBD00BFAFF3008018
:1017E00041F28802C2F200021068F0B40368956901
:1017F000012714260021AC6813605A60077703465E
:101800009061EE77297700E01B689A68A242FBD2CC
:101810005A6829462B606A605D601560F0BCFFF76E
:10182000C7BD00BFAFF30080AFF30080AFF300800F
:1018300041F28802C2F20002106870B40368956930
:1018400001260021AC6813605A6006770346906158
:10185000297700E01B689A68A242FBD85A6829469B
:101860002B606A605D60156070BCFFF7A1BD00BFB2
:1018700041F28803C2F200039B69DB7F0BB1FFF7E3
:10188000D7BFFFF7ADBF00BFAFF30080AFF300805D
:101890002DE9F00341F28802C2F2000255690024EA
:1018A00000F12C064FF002094FF0140800F1280750
:1018B0004FF0010C45610261816080F81C9080F856
:1018C0001F804477C463846304628461016450614F
:1018D00080F81EC0286187620663C662BDE8F00317
:1018E000704700BFAFF30080AFF30080AFF300801C
:1018F0002DE9F00F41F28805C2F20005A1F1240C98
:10190000696982B001910A9900EB0C07C76041F246
:10191000C13640F80C3079600199002300F12C0B9E
:10192000C0F600064FF0020A4FF014094FF001080C
:1019300000F1280C3E62826005614161026480F81A
:101940001CA080F81F9080F81E8043776861C363F5
:101950008363036283610861C0F828C0C0F830B0B7
:10196000C0F82CB002B0BDE8F00F7047AFF30080B4
:101970002DE9F0479E460446202383F3118841F267
:101980008806A1F124031844C2F20006776941F2E7
:10199000C131E06044F803E0089B002504F12C0EFF
:1019A00004F1280CC0F600014FF0020A4FF01409B0
:1019B0004FF0010843600162A26026616761226402
:1019C00084F81CA084F81F9084F81E8065777461E9
:1019D000E563A5632562A56120463C612946C4F8FC
:1019E00028C0C4F830E0C4F82CE0FFF7C1FE2B4655
:1019F00083F311882046BDE8F08700BFAFF3008075
:101A000008B50146202383F311880620FFF788FEDE
:101A1000002383F3118808BDAFF30080AFF300808B
:101A200008B5202383F3118841F27803C2F2000342
:101A3000D968411A02D00620FFF772FE002383F313
:101A4000118808BDAFF30080AFF30080AFF30080D2
:101A500038B541F28803C2F200039C69254655F867
:101A6000283F6062AB4207D01A681846A262FFF7AF
:101A700027FEA36AAB42F7D1637F9B0704D122699B
:101A800063691A61226953610E20BDE83840FFF78F
:101A90002FBE00BFAFF30080AFF30080AFF3008034
:101AA000202383F31188FFF7D3BF00BFAFF300807B
:101AB00038B50446202383F31188037F0E2B0AD008
:101AC00041F28803C2F20003826A9B6907201A6010
:101AD000A362FFF70DFE656A002383F31188204699
:101AE00000F006F8284638BDAFF30080AFF3008061
:101AF0000146202383F31188827F0023013AD2B26A
:101B0000827783F3118812B9037F0E2B00D07047C0
:101B1000437F03F00303012B02D0022B07D0704751
:101B2000026943691A610A69536100F0B1BB026935
:101B30004369406C1A610A69536100F021BC00BF1F
:101B400070B582B016461C460D4600F059FB98B1A0
:101B5000202383F31188069B2946009332462346AF
:101B6000FFF7C6FE0123437700210446FFF700FE7E
:101B7000002383F31188204602B070BDAFF30080CC
:101B8000202383F3118841F28803C2F2000318690D
:101B90000023827F0132827783F31188704700BF70
:101BA00010B5202383F3118841F288030469C2F23F
:101BB00000039C4217BFA37F00240133A3770023B7
:101BC00083F31188FFF794FF204610BDAFF3008028
:101BD0000023406000608360704700BFAFF3008067
:101BE000F8B5826841F28803C2F2000305469C6999
:101BF000002A54D0A1689368994206D9137F916056
:101C0000042B33D0052B1DD09BB12B4603E09968E4
:101C1000A268914202D31B689D42F8D15A682360A2
:101C200062605C60146065620420BDE8F840FFF704
:101C30005FBD92E80A001960104612685360FFF712
:101C40003FFDE2E713685068566A03601768334641
:101C5000786002E09868884202D31B689E42F9D1FE
:101C60005968136051605A600A60CEE71368506883
:101C7000566A036017683346786002E098688842C5
:101C800002D31B689E42F9D15968136051605A60B3
:101C90000A60B268A16893688B42AFD3B5E7E36B83
:101CA0008460C360E063F8BDAFF30080AFF30080F1
:101CB00008B5202383F31188FFF792FF002383F3F5
:101CC000118808BDAFF30080AFF30080AFF3008050
:101CD00038B541F28803C2F200039869202383F3E8
:101CE0001188C46B2568E368A542C3631CD0016CEE
:101CF0004BB11A689A4203D09268914238BF11469C
:101D0000DB68002BF5D12B68EA6B816023602846E5
:101D10005C600021A560E260EC63FFF729FD002311
:101D200083F31188204638BD0023A360002383F38A
:101D30001188204638BD00BFAFF30080AFF30080AC
:101D400070B4202383F3118841F28803C2F20003A8
:101D50009E69056800240D60234601604E608A601C
:101D6000CC6083F3118870BC704700BFAFF3008074
:101D7000202383F31188024602E0994207D01A46D5
:101D800013688342F9D1002383F3118870470B68ED
:101D90001360002383F31188704700BFAFF3008006
:101DA00008B5826B037F1143082B81630BD0092B8D
:101DB00000D008BD436A19408B42FAD1FFF780FC7E
:101DC0000023436208BD436A1942F7D108BD00BF32
:101DD00070B504680546A0420E4609D0E368606805
:101DE0003343E360A168FFF7DBFF2468A542F5D128
:101DF00070BD00BFAFF30080AFF30080AFF3008091
:101E000041F28802C2F2000270B5202304469569AF
:101E100083F31188AA6B10EA02060ED121B90B4692
:101E200083F31188002070BD68620820FFF778FCFA
:101E300000280ADBAA6B04EA020622EA0602AA6369
:101E4000002383F31188304670BD334683F3118835
:101E5000002070BDAFF30080AFF30080AFF30080CF
:101E600010B4024679B141F28803C2F200039B69C3
:101E70000D205A62546883E81400536023605DF8B3
:101E8000044BFFF74DBC4FF0FF305DF8044B70473B
:101E900030B4029C00250A448560046202614060FF
:101EA000006041618161C160C36130BC704700BFA7
:101EB00038B50446C36800680022A042A26063618E
:101EC000A3610AD06FF00105036823605C60FFF72F
:101ED000F7FB45622068A042F6D138BDAFF3008021
:101EE00003464269806910B582429C681BD0501C31
:101EF000013458619C60117059691A6991420BD282
:101F0000186898420DD002681A605360FFF7D8FB3A
:101F100000234362184610BD1868DA6898425A6177
:101F2000F1D1002010BD002CE1D06FF0030010BDF6
:101F300070B5202304460E4683F31188C3692BB184
:101F4000984703E0FFF78CFF002815DBA5682046C3
:101F50003146002DF6D0A2692169531C8B42A36142
:101F600005F1FF3528BFE368A560107828BFA3619D
:101F7000002383F3118870BD2B4683F3118870BD55
:101F80002DE9F0471E460446D0F81C80202383F339
:101F900011884FF0000901EB020A4F1CB8F1000F45
:101FA00005D02046C04702E0FFF75AFFF0B9A56808
:101FB00020463146002DF7D0A369013D5A1CA2618D
:101FC000A5601B7807F8013C2369A2699A4224BFE7
:101FD000E368A361002383F31188574509F10109E0
:101FE00007D0202383F311880137D7E72B4683F3EB
:101FF00011884846BDE8F087AFF30080AFF300805A
:1020000030B4029C8D1805610462406000608260FB
:1020100041618161C160C36130BC7047AFF3008032
:10202000F8B504460F461646202383F3118803E0D3
:10203000FFF716FF002819DBA56820463146002D62
:10204000F6D06369013D5A1C6261A5601F70236967
:1020500062699A4224BFE3686361E3690BB1204679
:102060009847002383F311880020F8BD2B4683F3A3
:102070001188F8BDAFF30080AFF30080AFF30080AC
:102080008269416910B591420346846816D0186987
:102090000134511C9C609961814214780BD21868FC
:1020A000984206D002681A605360FFF709FB0023CC
:1020B0004362204610BDDA689A61F0E7002CE6D052
:1020C0006FF0020010BD00BFAFF30080AFF30080DF
:1020D0002DE9F84F9A4604460E461746D0F81C9054
:1020E000202383F311884FF00008A56806F1010B47
:1020F00020466B1EDDB16269A360531C63613378B7
:102100001370236962699A4224BFE3686361B9F17D
:10211000000F00D0C847002383F31188013F08F166
:1021200001080DD0202383F311885E46DDE72046A9
:102130005146FFF795FE0028D7D02B4683F3118830
:102140004046BDE8F88F00BFAFF30080AFF30080DA
:1021500040F200010848C2F2010141F2A40241F23A
:10216000A80321F00701C2F2000220F00700C2F22A
:102170000003116018607047DB2B0020AFF3008074
:10218000202383F3118841F2A80341F2A402C2F292
:102190000003C2F2000219681268073020F007003D
:1021A000521A90429BBF4018186000200846002336
:1021B00083F31188704700BFAFF30080AFF3008056
:1021C00041F2A40241F2A803C2F20002C2F20003EB
:1021D00010681B68C01A7047AFF30080AFF300802F
:1021E00041F2B003C2F2000342F281120021C0F6B4
:1021F000000203F110001A609960D960FFF7E8BC93
:10220000F8B541F2B006C2F20006002818BF064633
:10221000073106F1100021F0070506F10804FFF769
:1022200047FD03E05A68954211D91C462368002BEC
:10223000F8D1FFF74DFD33681BB305F1080098474F
:10224000F8B10660456000F108042046F8BD05F1CC
:102250000801914208D91A6822601C4644F8086BAC
:10226000FFF736FD2046F8BD4FF6F870CFF6FF7049
:102270001F68401B10445A185F50506022605D6018
:10228000EBE70024E1E700BFAFF30080AFF300808D
:1022900070B5064650F8080CA6F1080400F10805D0
:1022A0001030FFF705FD2B46AB4204D0A34202D30A
:1022B0001B68AB42FAD11A681AB1944201D3134693
:1022C000F2E756F8041C46F8082C1C6001F10802DD
:1022D00056F8085CA018A84209D05A6802F1080113
:1022E00019448C4211D0BDE87040FFF7F1BC406842
:1022F000A2580144083146F8041C46F8082C5A68D4
:1023000002F1080119448C42EDD156F8040C56F83C
:10231000081C0244083283E80600BDE87040FFF75D
:10232000D7BC00BFAFF30080AFF30080AFF30080F5
:1023300038B541F2B003C2F20003002814BF0446CE
:102340001C4604F110000D46FFF7B2FCA3686BB108
:102350000022144658681B6801340244002BF9D14E
:1023600005B12A60FFF7B4FC204638BD1A461C466A
:10237000F6E700BFAFF30080AFF30080AFF300805B
:10238000202383F31188026800230A60016083F32D
:1023900011887047AFF30080AFF30080AFF3008087
:1023A00008B500F0FDFB00F013FA48F6D040C0F687
:1023B000000000F0D5FF00F013F800F049F800F03D
:1023C00077F800F0ADF800F05BF900F0B9F9BDE87E
:1023D000084001F0DDBE00BFAFF30080AFF3008026
:1023E00000F0F6BCAFF30080AFF30080AFF30080E5
:1023F00000230122027043608360C3600361436174
:102400001830FFF7E5BB00BFAFF30080AFF30080EB
:1024100010B52023044683F31188416000F018FDB5
:1024200002232370002383F3118810BDAFF30080D3
:1024300010B51C46202383F31188032303708260A8
:10244000C460016100F034FD002383F3118810BDE6
:1024500000F0EEBEAFF30080AFF30080AFF300807A
:102460000122002302704360704700BFAFF3008079
:1024700010B52023044683F31188416000F050FF1B
:1024800002232370002383F3118810BDAFF3008073
:1024900008B5202383F3118800F0D2FE002383F3D4
:1024A000118808BDAFF30080AFF30080AFF3008068
:1024B00001F036BCAFF30080AFF30080AFF30080D3
:1024C0000122002302704360704700BFAFF3008019
:1024D00010B52023044683F31188416001F048FCC5
:1024E00002232370002383F3118810BDAFF3008013
:1024F00008B5202383F311880423037001F0A0FCA6
:10250000002383F3118808BDAFF30080AFF3008090
:102510000423037001F094BCAFF30080AFF300809C
:1025200001F056B9AFF30080AFF30080AFF3008045
:1025300001220023027043600C30FFF749BB00BF4B
:1025400010B52023044683F31188416001F058F947
:1025500002232370002383F3118810BDAFF30080A2
:1025600010B52023044683F3118801F009FA0123F2
:102570002370002383F3118810BD00BFAFF30080E8
:1025800080687047AFF30080AFF30080AFF3008046
:10259000F0B585B01F4604460A9E0B9D202383F3A9
:1025A00011880C9B4FF0030E0020029300960195BA
:1025B0003B46A06084F800E0204601F009FA431C85
:1025C0000CBF052302232370002383F3118805B079
:1025D000F0BD00BFAFF30080AFF30080AFF3008029
:1025E0000C30FFF765BB00BFAFF30080AFF3008096
:1025F000FFF76EBBAFF30080AFF30080AFF3008056
:102600000C30FFF7BDBC00BFAFF30080AFF300801C
:102610000C304FF0FF33FFF7B3BC00BFAFF30080C7
:102620003030FFF755BD00BFAFF30080AFF300803F
:1026300030304FF0FF33FFF74BBD00BFAFF30080EA
:102640000C30FFF775BC00BFAFF30080AFF3008024
:102650000C304FF0FF31FFF76BBC00BFAFF30080D1
:102660003030FFF7DDBC00BFAFF30080AFF3008078
:1026700030304FF0FF32FFF7D3BC00BFAFF3008024
:1026800001F0CEBCAFF30080AFF30080AFF3008069
:1026900070B548F6F035C0F60005044682B040F843
:1026A000045B012600940B461546606004F154015A
:1026B00004F10C0026724022FFF7EAFB00942B463F
:1026C00004F1300004F194014022FFF799FC02B0BC
:1026D00070BD00BFAFF30080AFF30080AFF30080A8
:1026E00010B52023044683F3118801F0D1FC0223A6
:1026F0002372002383F3118810BD00BFAFF3008065
:1027000038B5436904460D463BB1294604F10C0037
:10271000FFF7E6FB00280BDB38BD04300421FFF790
:1027200057FB294604F10C00FFF7DAFB0028F3DA27
:10273000201D8021BDE83840FFF74ABBAFF3008081
:1027400001F016BAAFF30080AFF30080AFF3008062
:10275000002301220270436083600C30FFF738BA17
:1027600010B52023044683F31188416001F028FA54
:1027700002232370002383F3118810BDAFF3008080
:102780004FF48053CEF200035B688360704700BF54
:102790004FF48053CEF2000341F2D0025B688168AF
:1027A000C2F2000210B414685B1AC2681B1B934289
:1027B000836088BFC36003D80269934238BF036156
:1027C0005DF8044B704700BFAFF30080AFF30080AB
:1027D00010B541F2D00486B0C2F2000400224FF0DE
:1027E000FF314FF48053226004920591CEF2000332
:1027F000596842F2817242F29173C0F60002C0F64B
:10280000000301A8029303910192FFF7C1FF039B0C
:10281000236006B010BD00BFAFF30080AFF30080AF
:102820000022C4F2020241F2D4031168C2F2000392
:1028300010B51C6801F00F0151600CB15868A04739
:10284000BDE81040FEF764BDAFF30080AFF3008039
:102850000022C4F20202116841F2D403C2F2000362
:1028600010B5C1F303119C68080150600CB1D86821
:10287000A047BDE81040FEF74BBD00BFAFF300809E
:102880000022C4F20202116841F2D403C2F2000332
:1028900010B5C1F303211C69080250600CB15869DE
:1028A000A047BDE81040FEF733BD00BFAFF3008086
:1028B0000022C4F20202116841F2D403C2F2000302
:1028C00010B5C1F303319C69080350600CB1D8699D
:1028D000A047BDE81040FEF71BBD00BFAFF300806E
:1028E0000022C4F20202116841F2D403C2F20003D2
:1028F00010B5C1F303411C6A080450600CB1586A5A
:10290000A047BDE81040FEF703BD00BFAFF3008055
:102910000022C4F20202116841F2D403C2F20003A1
:1029200010B5C1F303519C6A080550600CB1D86A18
:10293000A047BDE81040FEF7EBBC00BFAFF300803E
:102940000022C4F20202116841F2D403C2F2000371
:1029500010B5C1F303611C6B080650600CB1586BD5
:10296000A047BDE81040FEF7D3BC00BFAFF3008026
:102970004FF48062C4F2020241F2D4031168C2F241
:10298000000310B59C6B01F00F0151600CB1D86BC6
:10299000A047BDE81040FEF7BBBC00BFAFF300800E
:1029A0004FF48062C4F20202116841F2D403C2F211
:1029B000000310B5C1F303111C6C080150600CB189
:1029C000586CA047BDE81040FEF7A2BCAFF30080F2
:1029D0004FF48062C4F20202116841F2D403C2F2E1
:1029E000000310B5C1F303219C6C080250600CB1C8
:1029F000D86CA047BDE81040FEF78ABCAFF300805A
:102A00004FF48063C4F20203196810B5C1F30331B7
:102A100049B141F2D402C2F20002146D08035860B9
:102A20000CB1506DA0474FF48063C4F202031968E3
:102A3000C1F3034149B141F2D402C2F20002946DE4
:102A4000080458600CB1D06DA047BDE81040FEF7F7
:102A50005FBC00BFAFF30080AFF30080AFF3008036
:102A600041F2341330B40021C2F2000348F610459D
:102A700041F2D40419600A460B46C0F60005C2F2C2
:102A80000004E8580C33902B0160A15002F10802B9
:102A9000F7D100214FF480634FF0FF32C4F20201FE
:102AA000C4F202034A6030BC5A607047AFF3008042
:102AB000F8B5457A012606FA05FC41F23414C2F253
:102AC000000427681CEA070F3AD141F2D406C2F28B
:102AD00000064CEA070706EBC50C46F83520CCF893
:102AE00004307B0618BF4FF4805327601CBFC4F22C
:102AF00002035C694FF000061CBF44F001045C61F6
:102B000017F4786F1EBF4FF48053C4F202035C6960
:102B10004FF00F071CBF44F002045C610368446877
:102B20001D6825F00F051D60057A07FA05F525607B
:102B30001E603AB1807A0901FEF74AFC3046F8BDC2
:102B40003046F8BD1046F8BDAFF30080AFF300800B
:102B500010B50446807AFEF763FC637A01229A403E
:102B600041F23413C2F20003196821EA020251064D
:102B70001A6001BF4FF48053C4F20203596921F077
:102B8000010108BF596112F4786F01BF4FF48053FF
:102B9000C4F202035A6922F0020208BF5A6110BD52
:102BA0004FF48053F0B4C4F2020300214FF0FF351C
:102BB0004EF2100241F63F141869CEF200021D6178
:102BC000C0F20104196107264EF6F050DF68CEF21C
:102BD0000000DD60D960546091601660C2684FF4F7
:102BE000805142F08072C260CEF2000108684FF45A
:102BF000E04240F001000860D969C4F2000241F0EF
:102C00008051D961D969F0BC41F00061D961136884
:102C100043F480731360FFF723BF00BFAFF300805E
:102C20004FF48053C4F202031A68194642F00102BD
:102C30001A600A684FF480539207C4F20203F8D571
:102C40001968002201F0F901196019465A604A68B2
:102C50004FF4805312F00C0FC4F20203F7D11A683C
:102C6000194642F480321A600A684FF48053900388
:102C7000C4F20203F8D55A68194642F4E8125A60C1
:102C80001A6842F080721A600A684FF48053920109
:102C9000C4F20203F8D54FF444414FF40052C0F29D
:102CA0001D01C4F2020212205960106059681A46D0
:102CB00041F002015960536803F00C03082BFAD16C
:102CC000704700BFAFF30080AFF30080AFF3008028
:102CD000F8B50D0704462BD5C36A01691A685D680B
:102CE00017680F2627F00F0717601A7A8B6896402F
:102CF000826A00212E6091603BB1052202709847E4
:102D00002378052B04BF0223237000232361202393
:102D100083F3118863693BB100214FF0FF32616199
:102D200018465A62FEF7CCFC002383F31188F8BDE5
:102D30008A072ED503691D78002D34D1C26A5B68DD
:102D400011685668D1F800C00F272CF00F0CC1F89D
:102D500000C0117A826A07FA01F131609560002B98
:102D600031D0042202708168C26898472378042B0E
:102D700002BF022325612370202383F31188636936
:102D8000002BD1D00022626118465A62FEF798FCEF
:102D9000CAE74B0706D503695B681BB1C268816847
:102DA00052089847F8BD5D68002DFBD0C268012A23
:102DB00081BF598852085143836894BF816803EBEF
:102DC0004101A847F8BD022203610270D4E700BFA9
:102DD000F8B541F23814C2F200042046FFF708FBB0
:102DE00042F28A534FF480522363C4F2020297697D
:102DF00048F610414FF41053C4F20103C0F600012D
:102E000047F40077002601250920E162A3621946F4
:102E100097615E609D6098608A684FF41053160752
:102E2000C4F20103F8D405229A6019468B684FF466
:102E3000105213F00403C4F20102F7D14FF4805191
:102E40009360C4F202018B6923F400738B61F8BDB7
:102E5000037810B5012B044600D010BD41F23813A1
:102E6000C2F20003984204D0A36A00225A609A601A
:102E700010BD42F6D142C0F6000205212346C06AC9
:102E8000FFF716FEE36A42F24C421968C4F20102EF
:102E90004FF480538A60C4F202039A6942F40072CC
:102EA0009A61E1E7AFF30080AFF30080AFF30080F9
:102EB0000369F0B41978026BC56829B1012D94BF7C
:102EC00042F0200242F024025C88C16A04FB05F54E
:102ED00009688468DE68CC604D600A600D68826AAB
:102EE000186945F0010510F4841F0D6046F48074E4
:102EF00014BF40F4807140F481715F699E69DD699F
:102F0000546041F001011C6A5B6A08439060D7601D
:102F10001661D56214635363F0BC9160704700BFC3
:102F200008B541F26C10C2F2000042684FF48063B1
:102F3000C4F2010301215268596100219047BDE8A4
:102F40000840FEF7E5B900BFAFF30080AFF30080A3
:102F500008B541F26C10C2F2000042684FF4806381
:102F6000C4F201030221D268596101219047BDE8F2
:102F70000840FEF7CDB900BFAFF30080AFF300808B
:102F800008B541F26C10C2F2000042684FF4806351
:102F9000C4F2010304215269596102219047BDE83E
:102FA0000840FEF7B5B900BFAFF30080AFF3008073
:102FB00008B541F26C10C2F2000042684FF4806321
:102FC000C4F201030821D269596103219047BDE889
:102FD0000840FEF79DB900BFAFF30080AFF300805B
:102FE00008B541F26C10C2F2000042684FF48063F1
:102FF000C4F201031021526A596104219047BDE8CF
:103000000840FEF785B900BFAFF30080AFF3008042
:103010004FF48063C4F2010310B55C6904F4787264
:103020005A61A3062ED4600623D4210618D4E205E3
:103030000DD4A30507D541F26C10C2F2000043681D
:103040000921DB6C9847BDE81040FEF761B941F2F9
:103050006C10C2F20000436808215B6C9847E8E7F7
:1030600041F26C10C2F2000043680721DB6B984705
:10307000DDE741F26C10C2F20000436806215B6B91
:103080009847D2E741F26C10C2F200004368052174
:10309000DB6A9847C7E700BFAFF30080AFF300805B
:1030A0004FF48063C4F2010310B55C6904F47C4200
:1030B00061055A6139D422052ED4E30423D4A00437
:1030C00018D461040DD4220407D541F26C10C2F269
:1030D000000043680F21DB6F9847BDE81040FEF702
:1030E00017B941F26C10C2F2000043680E215B6F09
:1030F0009847E8E741F26C10C2F2000043680D21E6
:10310000DB6E9847DDE741F26C10C2F200004368C5
:103110000C215B6E9847D2E741F26C10C2F20000BE
:1031200043680B21DB6D9847C7E741F26C10C2F290
:10313000000043680A215B6D9847BCE7AFF300804D
:1031400008B541F26C10C2F2000042684FF480638F
:10315000C4F201034FF48031D2F884205961102168
:103160009047BDE80840FEF7D3B800BFAFF300803A
:1031700008B541F26C10C2F2000042684FF480635F
:10318000C4F201034FF40031D2F88C2059611121AF
:103190009047BDE80840FEF7BBB800BFAFF3008022
:1031A00008B541F26C10C2F2000042684FF480632F
:1031B000C4F201034FF48021D2F894205961122106
:1031C0009047BDE80840FEF7A3B800BFAFF300800A
:1031D00008B506206021FEF7FBF807206021FEF706
:1031E000F7F808206021FEF7F3F809206021FEF7C8
:1031F000EFF80A206021FEF7EBF817206021FEF7B8
:10320000E7F828206021FEF7E3F801206021FEF7AF
:10321000DFF829206021FEF7DBF8BDE808402A200E
:103220006021FEF7D5B800BFAFF30080AFF3008098
:1032300041F26C10C2F20000FFF712B9AFF3008048
:10324000426801208840F0B44FF4806652F8313073
:10325000C4F20106B76813F0010F6FEA000414BF4F
:103260000743274013F0020F4FF48063B760C4F2A6
:103270000103DE6802EBC10514BF06432640DE6091
:103280006B681BB34FF48063C4F201031D682843CD
:103290001860586804405C600F2915D852F8310056
:1032A00001F003039B000F22C0F303109A4000FAC1
:1032B00003F321F0030101F1804101F580318868B9
:1032C00020EA020213438B60F0BC70474FF4806326
:1032D000C4F201035D6828435860186804401C600C
:1032E000DAE700BFAFF30080AFF30080AFF30080F8
:1032F000012303FA01F14FF48063C4F2010318685B
:10330000CA431040186058681040586098681040D0
:103310009860D8680240DA6059617047AFF3008066
:1033200038B503780546012B13D0002404E001349E
:10333000FFF786FF132C0BD06B68214653F834300F
:1033400028465B07F3D40134FFF7D2FF132CF3D1E7
:1033500038BDFFF73DFFE8E7AFF30080AFF3008033
:103360004FF48053C4F202039A6930B442F4FE72FF
:1033700042F001029A6102684FF40063C4F2010353
:10338000DA6081684FF4406259604168C4F201021A
:103390001960C1684FF48053D1604169C4F20103E0
:1033A000516001694FF4A05411608269C4F20104B4
:1033B000DA60026A4FF4C0515A60C269C4F2010176
:1033C0001A60436A4FF4E052E360C36AC4F2010238
:1033D0006360856A4FF400532560046BC4F20103F7
:1033E000CC60846B4C60446B0C60C16BD160416CF1
:1033F00030BC5160016C1160826CDA60026D5A6001
:10340000C26C1A60704700BFAFF30080AFF300805A
:10341000032AF0B408BF016102D0042A08BF416149
:1034200048F6A043C0F600039F5C00231C461A46E2
:103430001D46082611F0800F4FEA02124FEA0313CF
:103440004FEA05154FEA04140CBF42F00F023B434C
:1034500011F4004F0CBF45F00F053C43013E4FEA0D
:103460004101E7D141680D402C4344600168F0BC44
:103470000A40134303607047AFF30080AFF300804E
:10348000026B436B30B4002114684FF400451D807B
:1034900019809980998223680F2123F00F032360FC
:1034A000147AC36A01FA04F450681A680460146854
:1034B000586824F00F0414601B7A30BC99400160F6
:1034C000704700BFAFF30080AFF30080AFF3008020
:1034D00038B50446202383F31188C5694DB1FFF741
:1034E000CFFF00224FF0FF33E26128466B62FEF708
:1034F000E7F8002383F3118838BD00BFAFF30080E5
:1035000038B50B070546446B01D5FDF7C1FE2B6BA3
:103510000F201A685968156825F00F0515601B7A89
:1035200000FA03F30B60A3889BB243F40073A380FB
:1035300038BD00BFAFF30080AFF30080AFF3008071
:103540000A07F8B50546446B2BD4EA6A0F261168C2
:1035500050680F68202327F00F070F60127A06FAD1
:1035600002F20260A28822F480521204120CA2809D
:10357000228822F480621204120C2280228892B2E5
:1035800042F40072228083F31188EB692BB1002290
:10359000EA6118465A62FEF793F8002383F3118814
:1035A000F8BDFDF775FED0E7AFF30080AFF3008004
:1035B00041F27412C2F2000238B5546B0821238B19
:1035C000A58AC0F20301ADB245EA034323F07F436D
:1035D0008B426BD025D80121C0F203018B4259D018
:1035E0000221C0F203018B4213D1A388D26A23F4D3
:1035F00000731B0412681B0CA380136843F00103C3
:103600001360A3889BB243F48053A3805368012BBB
:103610005BD915F00A0F18BF238BBDE83840FDF7C2
:1036200077BE8221C0F207018B4226D08421C0F2EE
:1036300007018B42EDD1D36A1B685B68002B3AD13E
:10364000A188202321F400710904090CA18021889C
:1036500089B241F40071218083F31188D06941F26D
:103660007413C2F2000320B100224262DA61FEF755
:1036700027F8002383F31188CBE7A388126B23F488
:1036800000731B0412681B0CA380136843F0010332
:103690001360BEE7138C1A0A0BD003F0010343F04A
:1036A000F00302F006021A432282B2E7138CC3F33E
:1036B00047032382ADE72388118C9BB243F4A063B8
:1036C00041F0010111842380A7E7238823F480635C
:1036D0001B041B0C23809CE7AFF30080AFF300803A
:1036E00041F27412C2F20002506BF8B5838A146B77
:1036F0009BB203F45F4181F47F41266881F0FF01B2
:10370000818231680F2521F00F013160277AD16A5B
:1037100005FA07F766680C68376027684E6827F077
:103720000F0727600C7A03F48071A54089B23560D9
:1037300001B101219C05916044BF41F002019160FB
:103740005F050ED5858841F0040425F40071090455
:10375000090C818005882146ADB245F400750580CD
:1037600094601E0544BF41F0080191605D0444BFB0
:1037700041F020019160DC0444BF41F010019160F0
:10378000180444BF41F04001916004D419B9BDE868
:10379000F840FDF7BDBD202383F31188D06941F2C5
:1037A0007413C2F2000330B16FF0010242620022D2
:1037B000DA61FDF785FF002383F31188BDE8F84047
:1037C000FDF7A6BDAFF30080AFF30080AFF300803C
:1037D00010B541F27414C2F200042046FEF7A8FEB0
:1037E000064B4FF4A8420020C4F20002A3F10C01E2
:1037F000E0616263E362216310BD00BF588C000882
:10380000F8B503789A218A22012B0446816242622C
:10381000456B69D02A46E16A236BD1F800C01F6866
:103820004FF4004005F110034FF410610026CCF86E
:103830000830BB6028802E80A9809388616823F0BF
:103840003F031B041B0C48680F7A9380948848F24E
:10385000A063A4B2C0F2010344F02404984294800F
:1038600036DD4FF4D453C0F20603984218DC022F21
:1038700078D0032F01BF00EB80004FF4A24300EB90
:103880008000C0F2252301BF93FBF0F66FEA864665
:103890006FEA9646B6B218BF48F6FF760B2313843C
:1038A00096830978138802299BB255D0032908BF53
:1038B00043F00A0305D0012902BF23F00A031B04C9
:1038C0001B0C13802B889BB243F001032B80F8BDA7
:1038D0004FF4A2434600C0F2252393FBF6F62524BD
:1038E000C6F30B061484DBE741F27413C2F2000343
:1038F00098428FD14FF48056C4F2020631690023FA
:1039000041F4001143F241523161C0F600023361CB
:103910000A212346C06AFFF7CBF843F20152C0F6F2
:1039200000020A212346206BFFF7C2F8F3691F202B
:1039300043F40013F361A021FDF74AFD2020A021EC
:10394000FDF746FD626AA36A42F4805243F4805355
:103950006262A362626B5EE74FF6F771194041F055
:103960000203AEE74FF4A24300EB4000C0F2252370
:1039700093FBF0F66FEA46466FEA5646B6B28DE71D
:10398000037810B5012B04460DD0FFF779FD206BAD
:10399000FFF7DEF8E06AFFF7DBF841F27413C2F2DA
:1039A00000039C4200D010BD1F20FDF739FD2020F0
:1039B000FDF736FD4FF48053C4F20203DA6922F4B6
:1039C0000012DA61EFE700BFAFF30080AFF30080D1
:1039D0002DE9F04987B0109D17466A1C80468B463A
:1039E0001E46446B08D043F2D142C0F6000201A843
:1039F00029464346FDF7E4FD002383F31188D8F8F8
:103A00002C10D8F8303000221B680868C8F808204D
:103A1000D8F828204FEA4B0BD8F82410A8F820B08B
:103A20001A60DF600F9A5E600E9B0160C3604260A7
:103A300002E0002383F31188228B2023970702D40E
:103A4000228896050BD583F311886B1CF1D0049A5C
:103A5000002AEED14FF0FF3007B0BDE8F08983F3C4
:103A60001188013520D0049B002BF3D0A38841F2AC
:103A700088059BB243F40073A3802288C2F200053C
:103A8000AB6992B242F4807222800220C8F81C30E6
:103A9000FDF72EFE049B13B101A8FDF7B1FDAB6944
:103AA000586A07B0BDE8F089A38841F288059BB247
:103AB00043F40073A3802288C2F20005AB6992B27E
:103AC00042F4807222800220C8F81C30FDF710FEFC
:103AD000E5E700BFAFF30080AFF30080AFF30080F5
:103AE0000B0700D47047FDF7D3BB00BFAFF30080D6
:103AF0000A0770B5044631D4626A236A10685568B3
:103B000006680F2126F00F060660107A1A6801FA7F
:103B100000F028601568606825F00F0515601D7AB3
:103B20005A68A94003681160ABB104222270204694
:103B300098472378042B0ED0202383F31188A368A1
:103B40002BB10022A26018465A62FDF7B9FD00238E
:103B500083F3118870BD02232370EDE7FDF798FB16
:103B6000CAE700BFAFF30080AFF30080AFF300807F
:103B700038B541F2B014C2F2000441F2AC13C2F203
:103B800000034FF6FF7220461A80FEF7E1FD084B56
:103B90004FF44052C4F2010203F10C0541F20A0055
:103BA00041F21801E26123626562A062E16238BD00
:103BB0001C8C0008AFF30080AFF30080AFF30080EF
:103BC000037810B5012B04461ED0C3696268A06A51
:103BD0005289E16A20F4706021F4706112F4006F80
:103BE0001CBF40F4A06041F4A061A062E16242F415
:103BF00041720020072118801A8099801A8892B299
:103C000042F040021A8010BD41F2B013C2F200032C
:103C1000984209D0216A626AE3690868116803F171
:103C20000C0282608A60D1E743F6F122C0F60002FE
:103C30000A212346006AFEF73BFF43F6E122C0F665
:103C400000022346606A0A21FEF732FF4FF48053D8
:103C5000C4F202039A6942F480529A61DAE700BF23
:103C6000436801211A895B6801FA02F25A617047C0
:103C7000436801211A895B6801FA02F21A617047F0
:103C8000C26991811389DB07FCD5908980B27047A6
:103C9000017808B5C368002204291A6107D10221FE
:103CA00001701A601A61DA6822F0FF02DA60436874
:103CB0005B68984708BD00BFAFF30080AFF300809A
:103CC00008B541F2E010C2F20000FFF7E1FFBDE8E5
:103CD0000840FDF71DBB00BFAFF30080AFF30080CD
:103CE00008B541F2F010C2F20000FFF7D1FFBDE8C5
:103CF0000840FDF70DBB00BFAFF30080AFF30080BD
:103D000008B541F20020C2F20000FFF7C1FFBDE894
:103D10000840FDF7FDBA00BFAFF30080AFF30080AD
:103D200008B541F2E013C2F200034FF43052C4F27E
:103D300001021846DA60FEF7C3FB41F2F013C2F24B
:103D400000034FF080421846DA60FEF7B9FB41F2FB
:103D500000234FF44062C2F20003C4F2000218468E
:103D6000DA60BDE80840FEF7ABBB00BFAFF30080F0
:103D7000037810B5012B044610D06368A268186858
:103D8000197AB2FBF0F0E3680138002280B208240F
:103D90001A605C609862D9601A6110BD41F2E0134C
:103DA000C2F20003984223D041F2F013C2F20003A2
:103DB000984235D041F20023C2F200039842DCD190
:103DC0004FF48053C4F20203D969002241F0080184
:103DD000D9611969322041F0080119611A61702115
:103DE000FDF7F6FA4FF42243C0F24A43A360C4E75A
:103DF0004FF48053C4F202039969002241F4006138
:103E00009961D968192041F40061D960DA607021A4
:103E1000FDF7DEFA4FF42243C0F24A43A360ACE759
:103E20004FF48053C4F20203D969002241F001012A
:103E3000D96119691C2041F00101CEE7AFF3008080
:103E4000C368002201390120D96258615A621A619F
:103E5000D96805220143D9601A607047AFF300802A
:103E60004FF46053C4F201039A8992B242F0800287
:103E70009A817047AFF30080AFF30080AFF300800A
:103E80004FF48843C4F200039A8992B242F0800250
:103E90009A817047AFF30080AFF30080AFF30080EA
:103EA0004FF49043C4F200039A8992B242F0800228
:103EB0009A817047AFF30080AFF30080AFF30080CA
:103EC0002DE9F041D0F8D4500646B5F80C802C8886
:103ED0001FFA88F8A4B2E00545D4202383F31188A3
:103EE000A10622D5371D08E0A9883046C9B2FEF7E1
:103EF00007FC2C88A4B2A10617D52207F4D014F031
:103F0000080F14BF8021002114F0010F18BF41F0E9
:103F10002001A30748BF41F040016407384648BF6D
:103F200041F48071FDF754FFDEE7002383F311882D
:103F300018F0800F01D0220624D4630611D5202367
:103F400083F311881021301DFDF742FF002383F316
:103F500011884FF63F7308EA03034FF6BF72AB8137
:103F60002A80BDE8F081202383F311884FF400718B
:103F7000301DFDF72DFF002383F311884FF6FF63FB
:103F80002B80AAE7202383F3118806F13000FEF787
:103F900077F80028A4BF80B2A88003DB002383F356
:103FA0001188CAE7301D0821FDF712FF28F0C00371
:103FB00043F04003AB81F1E7AFF30080AFF3008043
:103FC00008B541F21020C2F20000FFF779FFBDE80A
:103FD0000840FDF79DB900BFAFF30080AFF300804C
:103FE00008B541F2E820C2F20000FFF769FFBDE822
:103FF0000840FDF78DB900BFAFF30080AFF300803C
:1040000008B541F2C030C2F20000FFF759FFBDE829
:104010000840FDF77DB900BFAFF30080AFF300802B
:1040200070B541F21026C2F2000643F661623046D6
:10403000C0F60002002141F2E825FEF729FBC2F29A
:1040400000054FF4605343F68162C4F20103284631
:10405000C0F60002002141F2C034C6F8D430C2F2EA
:104060000004FEF715FB4FF4884343F6A162C4F247
:1040700000032046C0F600020021C5F8D430FEF748
:1040800007FB4FF49043C4F20003C4F8D43070BD72
:1040900038B548F6C044037AC0F60004002918BFBA
:1040A0000C46012B05462CD0D5F8D4304FF4605285
:1040B000C4F2010293420BBF216821684FF42242EF
:1040C0004FF4A2420CBFC0F24A42C0F22522B2FB1A
:1040D000F1F292B21A81A288E188208942F4045256
:1040E00041F0400442F02C0240F0010092B2A4B230
:1040F00080B200211C8298829A8119801A889B883C
:1041000038BD41F21023C2F20003984218D041F2A8
:10411000E823C2F2000398421FD041F2C033C2F23A
:1041200000039842C0D14FF48053C4F20203DA690D
:10413000272042F48022DA61C021FDF749F9B3E774
:104140004FF48053C4F202039A69252042F480425E
:104150009A61C021FDF73CF9A6E74FF48053C4F201
:104160000203DA69262042F40032DA61C021FDF749
:104170002FF999E7AFF30080AFF30080AFF3008031
:10418000FEF74EBDAFF30080AFF30080AFF30080C9
:104190000023C4F201035A6842F01A025A607047C1
:1041A000F0B400F10B0700F10A050C46B1FBF2F682
:1041B00002FB161101F13003392BC8BF01F137039F
:1041C000DBB2B4FBF2F431462E4605F80139002C7F
:1041D000ECD1B91B3246014401E012F8013F00F86E
:1041E000013B8842F9D1F0BC704700BFAFF30080BB
:1041F0002DE9F04F89B00DF115030DF1140A48F6C1
:1042000030580193C0F60008CAEB030383460C46FE
:1042100016460293CDF80C802178631C59B12529EC
:104220000CD0DBF800201C46926858469047217855
:10423000631C0029F3D109B0BDE8F08F6278002536
:104240002D2A03BFA278A31C4FF0010C4FF0000CE5
:104250002E2A18BF302A03BF5A780133302720276F
:104260001C4606E03378043605EB8505227803EB1F
:104270004505A2F13003DBB2092B04F10104F3D9A7
:104280002A2AEFD02E2A4FF000012FD002F0DF03B0
:104290004C2B3AD12378012013B101341A46012066
:1042A000A2F14403342B00F2B480DFE803F077B2CC
:1042B000B2B2B277B2B2B2B2B275B2B2B2B2B236D2
:1042C000B2B2B0B2B2B2B2B2B2B2B2B2B2A677B217
:1042D000B2B2B277B2B2B2B2B275B2B2B286B236DE
:1042E000B2B2B0003378043603EB400114F8012B6E
:1042F00001EB8100A2F13003DBB2092BF4D92A2AA9
:10430000F0D002F0DF034C2BC4D0A2F14100C0B2C8
:1043100019288CBF00200120C2E70A2231685046CC
:104320000436CDF800C0FFF73BFFDDF800C0CAEB54
:10433000000000F1FF39D0462D1A25EAE575BCF1E1
:10434000000F0DD16D425DB198F800102D2967D096
:10435000DBF8003058469B68394698470135F7D15D
:10436000B9F1000FA4BFC14408F1FF3808DBDBF846
:10437000003018F8011F9B6858469847C845F6D189
:10438000002D3FF449AFDBF8003058469B683946B2
:104390009847013DF7D13FE70822BFE731680A227D
:1043A0000029B8BF2D2306F10406BDBF8DF81430D7
:1043B00049420DF115005046B3E7D6F80080039A44
:1043C00047F6FF73B8F1000F08BF904698F8000059
:1043D0000436002908BF1946002833D0414443461B
:1043E00001E08B4228D05A780133002AF9D1C8EB7A
:1043F000030000F1FF3920279EE7336802988DF80B
:104400001430043600F1FF392027D04694E71022FB
:1044100084E702988DF8142000F1FF39D0468BE72D
:10442000302F95D1DBF8003058469B68984708F14B
:10443000010809F1FF398BE7C8EB010000F1FF39F2
:10444000202779E74FF0FF39202775E7AFF3008089
:10445000012970B51446064671DD156848F6885185
:104460002846C0F6000104F0F3F9A0B9656848F6E3
:1044700090512846C0F6000104F0EAF900284FD018
:1044800048F6A4512846C0F6000104F0E1F90346BD
:10449000002838D0256848F6B8512846C0F60001F3
:1044A00004F0D6F988B9656848F690512846C0F6F8
:1044B000000104F0CDF9B8B148F6A4512846C0F681
:1044C000000104F0C5F9034600B170BD40F60102D9
:1044D00048F6D4513046C2F20002C0F60001BDE8F1
:1044E0007040137003F08CBD40F6010348F6C051D4
:1044F000C2F200030122C0F6000130461A7003F038
:104500007FFD6568D8E740F6000248F6A851C2F280
:104510000002C0F600013046137003F071FDB9E7E8
:1045200040F6000348F69451C2F200030122C0F69F
:10453000000130461A7003F063FD6568A0E748F695
:104540004051C0F6000103F05BFD48F66051304673
:10455000C0F6000103F054FD48F670513046C0F635
:104560000001BDE8704003F04BBD00BFAFF3008019
:10457000002909DD48F6E85148F6F452C0F600017A
:10458000C0F6000203F03CBD41F27803C2F2000322
:1045900048F6FC51DA68C0F6000103F031BD00BFF7
:1045A00030B5002983B004460CDD48F6E85148F6E2
:1045B0000462C0F60001C0F6000203B0BDE830405E
:1045C00003F01EBD48F60C6148F62062C0F60001FB
:1045D000C0F6000203F014FD48F6286148F63C627C
:1045E0002046C0F60001C0F6000203F009FD48F6BF
:1045F000486148F65C622046C0F60001C0F6000241
:1046000003F0FEFC48F6646148F678622046C0F686
:104610000001C0F6000203F0F3FC48F6846148F69E
:1046200098622046C0F60001C0F6000203F0E8FCE4
:1046300048F6B06148F6C4622046C0F60001C0F6F4
:10464000000203F0DDFC48F6EC6148F600722046FB
:10465000C0F60001C0F6000203F0D2FC48F60C716F
:1046600048F620722046C0F60001C0F6000248F667
:10467000507503F0C5FCC0F6000548F6287148F6F1
:10468000407248F64C7320460095C0F60001C0F613
:104690000002C0F6000303F0B3FC03B030BD00BF5E
:1046A000002908B507DDBDE8084048F65C71C0F692
:1046B000000103F0A5BC48F66C71C0F6000103F0E0
:1046C0009FFC6420FDF79CF9BFF34F8F4FF46D42C0
:1046D000CEF20002D168042301F4E061C0F2FA5383
:1046E0000B43D360BFF34F8FFEE700BFAFF30080F3
:1046F00070B5002984B0054608DD48F67C71C0F627
:10470000000104B0BDE8704003F07ABC48F6907137
:10471000C0F6000103F074FCFDF732FA49F21026EE
:10472000C0F6000604461DE003F06AFCA268206A99
:10473000E3680092A27F48F6EC71013A0192227F71
:10474000C0F6000156F82220039002922846224625
:1047500003F056FC2046FDF723FA04461420FDF72B
:104760004FF984B1A36948F6D0712846C0F600011C
:104770001A46002BD8D148F6D871C0F60001284659
:1047800003F03EFCD2E704B070BD00BFAFF3008081
:1047900030B5002983B0044607DD49F20C01C0F6AC
:1047A000000103F02DFC03B030BD01A90020FDF78E
:1047B000BFFD0546FDF704FD49F21C010246C0F6A7
:1047C0000001204603F01CFC49F23C012A46204629
:1047D000C0F6000103F014FC49F25401019A20468E
:1047E000C0F6000103F00CFC0A4940F66C72C2F2FC
:1047F000000240F600030A44C2F20003D21A49F252
:10480000740120461346C0F6000103F0F9FB03B023
:1048100030BD00BFF8970000AFF30080AFF3008019
:1048200038B504460D46A8B1286048F6A031C0F658
:104830000001204604F0ECF804442046202104F056
:104840002FF860B1421C00232A600370237823B143
:10485000204638BD0C68002CE7D1002038BD286008
:10486000F4E700BFAFF30080AFF30080AFF3008048
:1048700041F2D843C2F200031B607047AFF30080DF
:1048800000B544F6C12383B00090C0F600030020B9
:10489000FDF756F903B05DF804FB00BFAFF30080ED
:1048A0002DE9F04F41F27807C2F200070E4640F6BC
:1048B0000103F96887B040F6000841F29849C2F256
:1048C00000030391824602923546B346C2F20008C5
:1048D0000193C2F200090024DAF8003050465B6808
:1048E0000DF1170101229847002800F0D68023B26D
:1048F000012B3DD0022B9DF8173041D01B2B00F02F
:10490000BC802BD8082B00F096800D2B67D0042B91
:1049100055D01F2BE0D902994A1E32449345DBD271
:1049200098F800208BF800300BF1010B002AD3D04F
:10493000019A1378002B40F0B4805D450BD015F838
:10494000012B49F2A801C0F60001504603F058FBC4
:10495000AB45F4D15D46FA680392BDE77F2B6AD080
:10496000C92B37D0212BD4D16420FDF749F8B3E708
:104970009DF817305B2B18BF0024BFD10224ABE792
:10498000412BA8D198F80030002B7AD102994A1E09
:104990003244934510D299F80040002C6FD041F278
:1049A0009843C2F2000303E013F8014F002C66D0D5
:1049B0000BF8014B9345F7D15D4600248CE749F293
:1049C0009C015046C0F6000103F01AFB012007B01D
:1049D000BDE8F08F4FF4FA70FDF712F87CE740F66F
:1049E0000003C2F200031B7800228BF80020BBB149
:1049F000AB4507D049F298212A46C0F6000150463F
:104A000003F0FEFA3278002A52D02C4B03F8012C26
:104A100016F8012F19460133002AF7D100230B7035
:104A200048F678715046C0F6000103F0E9FA00201C
:104A300007B0BDE8F08FB3453FF44EAF98F80030B3
:104A400063B90BF1FF3B5D4646E749F2A80115F853
:104A5000012BC0F60001504603F0D2FAAB45F4D169
:104A6000082249F2A001C0F60001134650460BF19E
:104A7000FF3B03F0C5FA5D462EE701242CE75D46B7
:104A80002AE749F2982141F29842C0F60001C2F2A9
:104A90000002504603F0B4FA78E7012007B0BDE801
:104AA000F08FFB6803995B1A322B3FF646AF52E753
:104AB00041F29841C2F20001B0E700BF9914002012
:104AC0002DE9F04341F28803C2F2000306689A69B7
:104AD00049F2AC03C0F6000349F2B40199B0D0F832
:104AE0000480C0F600019361304603F089FA49F270
:104AF000BC01C0F60001304603F082FA49F2D80149
:104B000048F6206248F62073C0F60001C0F60002A5
:104B1000C0F60003304648F6507403F071FAC0F650
:104B2000000449F2F00148F6407248F64C733046F2
:104B30000094C0F60001C0F60002C0F6000303F0C6
:104B40005FFA40F60407C2F2000749F20411C0F60A
:104B50000001304603F054FA304608A94022FFF71E
:104B60009FFE044600283CD102A908A8FFF758FE82
:104B700002A98146002002ADFFF752FE50B1042C7D
:104B800025D045F8040F02A900200134FFF748FEA4
:104B90000028F4D118AA02EB840343F8540CB9F1AD
:104BA000000FD2D049F23011C0F60001484603F0A0
:104BB0004FFE70BBE4B148F6E85149F23012C0F63E
:104BC0000001C0F60002304603F01AFABDE749F2D0
:104BD0001811C0F60001304603F012FA00230793C3
:104BE000B3E749F20C113046C0F6000103F008FAB1
:104BF000202383F3118841F2D8400021C2F2000043
:104C0000FDF7E6F80020FCF723FF002019B0BDE80F
:104C1000F08349F23811C0F60001484603F018FE4F
:104C200060B90CB348F6E85149F23812C0F60001F9
:104C3000C0F60002304603F0E3F986E7386840F634
:104C40000405C2F2000520B940E055F8080F00281D
:104C50003CD0494603F0FCFD0028F6D16B682146A4
:104C6000304603AA984770E749F24011C0F60001A8
:104C7000304603F0C5F93A6840F60404C2F2000475
:104C800052B149F25811C0F60001304603F0B8F9AC
:104C900054F8082F002AF4D1B8F1000F0ED0D8F83C
:104CA00000205AB1444649F25811C0F6000130467E
:104CB00003F0A6F954F8082F002AF4D148F67871C9
:104CC000C0F60001304603F09BF93EE7B8F1000F53
:104CD0000DD0D8F8000050B1454602E055F8080F55
:104CE00028B1494603F0B4FD0028F7D1B6E749F2F0
:104CF00098214A46C0F60001304603F081F949F296
:104D00005C113046C0F6000103F07AF91DE700BFE0
:104D10002DE9F04141F28803C2F20003996949F29A
:104D2000702240F63C0841F61013C0F60002C2F2B1
:104D30000008C2F200038A6182B0C8F8008003F55F
:104D4000F07100221A601A7518338B42FAD178205C
:104D5000FCF756FE01F004FC30B96420FCF750FE6D
:104D600001F0FEFB0028F8D04FF4FA60FCF748FE93
:104D700048F2A113C0F600030BB103F011FA41F69B
:104D800070563C4FC2F200061020FCF739FE02F0CC
:104D900027F800F0800084B2002CF5D102F020F852
:104DA00000F0400085B241F2E040002D52D148F2BF
:104DB000E1130095C2F20000C0F600034FF42C711D
:104DC0004122FCF7D5FD2C46054604E01020FCF7F7
:104DD00017FE33782BB902F003F800F0C0008442CC
:104DE000F4D03220FCF70CFE202383F31188D8F88E
:104DF0000030434506D040F63C00C2F200000021DE
:104E0000FCF7E6FF002383F311883220FCF7F8FD5E
:104E10002846FCF74DFE184C01F072F802E01834F9
:104E2000BC420DD054F8140C0028F8D02578002D81
:104E3000F5D1FCF73DFE183444F82C5CBC42F1D1AE
:104E40003378002BA0D03220FCF7DAFD3378002B2A
:104E5000F9D199E748F2B1130094C2F20000C0F60C
:104E600000034FF42C714122FCF782FD40240546DB
:104E7000B1E700BF041B002024190020AFF300801D
:104E8000F8B541F28803C2F200039A6949F2782327
:104E9000C0F6000393617820FCF7B2FD1020FCF708
:104EA000AFFD002500E0B5B26E1CB6B234B22046AC
:104EB00001F016F80746204601F052F8394602463E
:104EC00028B201F06DFB082CEDD101F0A9FBE5E75C
:104ED00041F28803C2F20003F0B49E6941F6101556
:104EE00000230F46B0611A46C2F20005EC5841F6A5
:104EF0001010A642C2F2000003F1180310D00132D4
:104F0000142AF3D100231A46E95841F61014183335
:104F1000C2F2000459B10132142AF5D1F0BC704735
:104F200002EB420200EBC2000775F0BC704702EBD7
:104F30004202D500631940F63C006651191D1F75E9
:104F4000C2F200000122F0BCFCF7FABEAFF3008011
:104F50000021FFF7BDBF00BFAFF30080AFF30080BB
:104F60004FF47A7303FB00F044F6D353411EC1F2B1
:104F70006203A3FB012399092DE9F04101314FF0B0
:104F8000FF30FCF73DFF41F28806C2F20006B8B1DF
:104F9000B069002341F610151C46C2F20005E9581D
:104FA00041F610128142C2F2000203F118030DD043
:104FB0000134142CF3D10020BDE8F041FCF770BDA2
:104FC000B069437F5907E4D4BDE8F08167003B191D
:104FD00002EBC302137D13B1437F5A07F4D507EBED
:104FE00004084FEAC80805EB080140F63C0004310C
:104FF000C2F20000FCF7BCFE48F2411241F6101369
:10500000C0F60002C2F200031AB153F8080003F020
:1050100097F8B3695B7F5B07CDD53B19DB000022B6
:10502000EA500020BDE8F041FCF73ABDAFF3008044
:1050300010B582B001F064FA01F02AF901F098FE8F
:1050400003F05EF841F2E82049F25021C2F200007C
:10505000C0F60001FDF744FB41F2E821C2F2000175
:10506000002001F0D5FC002049F2902248F6207380
:10507000C0F600030146C0F6000201F021FD49F22E
:105080009C22C0F600020020012101F019FD41F22E
:10509000C03049F25021C2F20000C0F60001FDF715
:1050A0001FFB41F2C031C2F20001012001F0B0FC4F
:1050B00049F2902248F62073C0F60003C0F60002C1
:1050C0000120002101F0FCFC012049F2AC22014644
:1050D000C0F6000201F0F4FC00F0EAFBFDF720FA54
:1050E00041F2741041F21021C2F20000C2F200013C
:1050F00001F0A6FF48F27113C0F600030BB103F0F4
:1051000037F800F035FA002400F06AFC00F0B0FD3A
:1051100000F0BEFD00F0CCF841F2907044F68163DF
:105120000094C0F600034FF4C0714A22C2F200009E
:10513000FCF71EFC41F6F02044F611530094C0F633
:1051400000034FF420714822C2F20000FCF710FC6B
:1051500002B010BDAFF30080AFF30080AFF300806A
:1051600041F2102049F26021C2F20000C0F60001B5
:10517000FDF7B6BAAFF30080AFF30080AFF3008065
:10518000202383F311880F4B09B2002204E001327F
:105190000C2A03F10C0310D0B3F900008842F6D1B9
:1051A00058680028F3DB40F6400302EB4202C2F2EB
:1051B0000003013003EB82039860002383F311881E
:1051C000704700BF44080020AFF30080AFF30080B9
:1051D0000B280BDC00EB400040F640038000C2F2DD
:1051E00000031A18917111B1012908D07047B2F962
:1051F00004200121914018580322FEF709B9B2F9A1
:105200000420185891400622FEF702B9AFF300803F
:105210000B280FDC00EB400040F640038000C2F298
:1052200000031A18B2F9042029B1012101FA02F28F
:105230001B581A617047012101FA02F21B585A618A
:10524000704700BFAFF30080AFF30080AFF3008082
:10525000F8B500210546460040F64004FFF7B8FFC8
:1052600072199200C2F20004A71845F28113A058E7
:10527000C0F60003B988032200F04AF9B7F90430F8
:10528000072B05D0354404EB85040023A360F8BD4B
:10529000032D04BF4FF0FF336367F3D0092D04BF24
:1052A0004FF0FF33E362EDE7AFF30080AFF3008030
:1052B00038B50B4C04F1900502E00C34AC420DD033
:1052C0002368002BF9D141F26C1034F9041CC2F2AE
:1052D00000000C34FDF7DCF8AC42F1D138BD00BF62
:1052E00048080020AFF30080AFF30080AFF30080E8
:1052F0002DE9F0478846002800F09180002940F30E
:105300008C8040F6D006C2F20006871D3D464FF065
:10531000000920E001292AD00A2930D00C294ED0DA
:105320000E2973D015F9063C15F8052C03EB430341
:1053300006EB430309F101095A7099705FFA89F984
:1053400035F8021C4FFA89F24245998005F10605AD
:1053500063DA5FFA89F915F8041C0029DAD115F926
:10536000060CFFF735FF15F8041C0129D4D115F9F7
:10537000060CFFF72DFF15F8041C0A29CED13C4678
:105380004FF0000A09E00AF10103DBB25AB24245CC
:1053900004F1060433DA5FFA83FA14F8043C0B2BA9
:1053A000F1D135F8023C34F8020C9842EBD1C0B28E
:1053B00015F9061C14F9062C00F092FAE3E73C46B6
:1053C0004FF0000A09E00AF10103DBB25AB242458C
:1053D00004F1060416DA5FFA83FA14F8043C0D2B84
:1053E000F1D135F8023C34F8020C9842EBD1C0B24E
:1053F00015F9061C14F9062C00F0E2FBE3E715F89A
:10540000041C8BE715F8041C0E298BD115F9060C2A
:10541000FFF71EFF15F8041C84E7BDE8F08740F68F
:10542000D006C2F2000630464FF00C086DE700BF10
:1054300038B500286BD0002969DD01398DB205EB44
:10544000450500F10C0303EB4505841D2EE0062BFA
:1054500029D114F8020C14F9061C01F0E1FD14F82E
:10546000020C14F8051C01F09BFD46F63171C0F6E4
:10547000000114F9060C34F9022C00F0A9FD46F6DF
:105480006171C0F6000114F9060C34F9022C00F029
:10549000AFFD46F68171C0F6000114F9060C34F92F
:1054A000022C00F0B5FD0634AC4230D014F9060CE5
:1054B00014F8051C00F034FD14F9060C14F8041C53
:1054C00000F03EFD14F8033C032BC0D145F601214A
:1054D00014F9060C34F9022CC0F6000100F078FD36
:1054E00045F6312114F9060C34F9022CC0F60001FE
:1054F00000F07EFD45F6512114F9060C34F9022C1A
:10550000C0F60001063400F083FDAC42CED138BDB8
:1055100070B440F61814C2F2000454F8315004EB91
:10552000C10605F0F0052A43072944F831207360CD
:1055300001D070BC70474FF4C053C4F201039842CD
:1055400002BF22F0F00242F04002A263F1D04FF419
:105550008053C4F20103984202BF22F0F00242F0ED
:105560002002A26370BC7047AFF30080AFF30080ED
:1055700041F26C1040F61811C2F20000C2F20001B4
:10558000FCF776BFAFF30080AFF30080AFF300808D
:1055900010B4202383F3118841F67453C2F2000340
:1055A000196E9A6E8C689068B3F96410B3F96C2028
:1055B00024FA01F120FA02F201F0010102F00102E5
:1055C00091425A6D14BF013202F1FF325A65002335
:1055D00083F311885DF8044B704700BFAFF3008080
:1055E00010B4202383F3118841F67453C2F20003F0
:1055F000D96FD3F884208C689068B3F98010B3F920
:10560000882024FA01F120FA02F201F0010102F0EF
:10561000010291421A6F14BF02F1FF3201321A6780
:10562000002383F311885DF8044B7047AFF30080CB
:1056300010B4202383F3118841F67453C2F200039F
:10564000D96FD3F884208C689068B3F98010B3F9CF
:10565000882024FA01F120FA02F201F0010102F09F
:10566000010291421A6F14BF013202F1FF321A6730
:10567000002383F311885DF8044B7047AFF300807B
:1056800010B4202383F3118841F67453C2F200034F
:10569000D9685A698C689068B3F91010B3F918206A
:1056A00024FA01F120FA02F201F0010102F00102F4
:1056B00091421A6814BF02F1FF3201321A600023CE
:1056C00083F311885DF8044B704700BFAFF300808F
:1056D00010B4202383F3118841F67453C2F20003FF
:1056E000996A1A6B8C689068B3F92C10B3F934205E
:1056F00024FA01F120FA02F201F0010102F00102A4
:105700009142DA6914BF02F1FF320132DA610023FB
:1057100083F311885DF8044B704700BFAFF300803E
:1057200010B4202383F3118841F67453C2F20003AE
:10573000596CDA6C8C689068B3F94810B3F9502052
:1057400024FA01F120FA02F201F0010102F0010253
:1057500091429A6B14BF02F1FF3201329A63002327
:1057600083F311885DF8044B704700BFAFF30080EE
:1057700010B4202383F3118841F67453C2F200035E
:10578000196E9A6E8C689068B3F96410B3F96C2046
:1057900024FA01F120FA02F201F0010102F0010203
:1057A00091425A6D14BF02F1FF3201325A65002353
:1057B00083F311885DF8044B704700BFAFF300809E
:1057C00010B4202383F3118841F67453C2F200030E
:1057D000D9685A698C689068B3F91010B3F9182029
:1057E00024FA01F120FA02F201F0010102F00102B3
:1057F00091421A6814BF013202F1FF321A6000238D
:1058000083F311885DF8044B704700BFAFF300804D
:1058100010B4202383F3118841F67453C2F20003BD
:10582000996A1A6B8C689068B3F92C10B3F934201C
:1058300024FA01F120FA02F201F0010102F0010262
:105840009142DA6914BF013202F1FF32DA610023BA
:1058500083F311885DF8044B704700BFAFF30080FD
:1058600010B4202383F3118841F67453C2F200036D
:10587000596CDA6C8C689068B3F94810B3F9502011
:1058800024FA01F120FA02F201F0010102F0010212
:1058900091429A6B14BF013202F1FF329A630023E6
:1058A00083F311885DF8044B704700BFAFF30080AD
:1058B0000A4A002310B41946A2F10804C3EBC3003E
:1058C0000133052B118044F8201002F11C0242F82C
:1058D000201CF3D15DF8044B704700BF7C1D0020F5
:1058E00004282DE9F04704460D46164603D80B2937
:1058F00001DC0B2A01DDBDE8F087C0EBC00241F6F8
:105900007453C2F2000392009F184FF0000943F84D
:10591000029028464946C7F80490FFF759FC40F624
:10592000400805EB4503C2F200089B0008EB0302A8
:10593000B2F804C058F803E049F2C023C0F60003EF
:105940006146704653F824300322A7F810C0C7F808
:105950000CE0BD72FFF7DCFD30464946FFF738FC2E
:1059600006EB46039B0008EB0302B2F804E058F88C
:10597000035049F2E023C0F6000353F82430714687
:1059800028460322FE72A7F818E07D61FFF7C0FDEC
:1059900001233B81BDE8F087AFF30080AFF30080C7
:1059A00041F67453C2F20003C0EBC00010B503EB24
:1059B0008004B4F90830012B00D010BD41F26C1006
:1059C000B4F91010C2F20000FCF762FD41F26C1055
:1059D000B4F91810C2F20000BDE81040FCF758BD41
:1059E00010B5002420460134E4B2FFF7D9FF052C9E
:1059F000F8D110BDAFF30080AFF30080AFF30080AB
:105A000083B2042B0BD8C0EBC00041F67453820064
:105A1000C2F20003991849689858401A704700204C
:105A2000704700BFAFF30080AFF30080AFF300809A
:105A300083B2042B0AD8C0EBC00041F67453800037
:105A4000C2F200031A580344511A5960704700BF4C
:105A50000428DFBF41F67453C0EBC000C2F200035C
:105A600003EB8003D6BF93F90A004FF6FF7080B2B4
:105A700000B27047AFF30080AFF30080AFF3008057
:105A8000F0B5002541F6745683B007462C46C2F2A5
:105A9000000672195268C4EBC40349F20031009247
:105AA00056F823302246C0F600013846013402F091
:105AB000A7FA052C05F11C05EBD103B0F0BD00BF22
:105AC00010B4202383F3118841F68873C2F20003D7
:105AD000197841F68C734901C2F200035A18906993
